:100000000C9462000C948A000C948A000C948A0070
:100010000C948A000C948A000C948A000C948A0038
:100020000C948A000C948A000C948A000C948A0028
:100030000C948A000C948A000C948A000C948A0018
:100040000C944D060C948A000C94BD060C949706F3
:100050000C948A000C948A000C948A000C948A00F8
:100060000C941F050C948A00000000002300260059
:10007000290000000008000201000003040700003E
:1000800000000000000000000000250028002B00F8
:1000900000000000240027002A00040404040404D3
:1000A0000404020202020202030303030303010227
:1000B00004081020408001020408102001020408F6
:1000C0001020EF0611241FBECFEFD8E0DEBFCDBF5A
:1000D00011E0A0E0B1E0ECE6F1E102C005900D9284
:1000E000AE34B107D9F722E0AEE4B1E001C01D9211
:1000F000A83CB207E1F710E0C2E6D0E004C02197C7
:10010000FE010E94A908C136D107C9F70E9437072E
:100110000C94B4080C940000CF93DF9390E0FC01A2
:10012000E255FF4F2491FC01E656FF4F849188234E
:10013000C1F090E0880F991FFC01E057FF4FC59177
:10014000D491FC01EA57FF4FA591B4919FB7F89461
:100150008881E22FE0958E2388838C91E823EC93AD
:100160009FBFDF91CF91089585ED8093BC00809172
:10017000BC0084FDFCCF1092ED0108954091C701B1
:10018000262F30E0240F311D21323105DCF420917F
:10019000ED012430C9F4FC0180E090E0861758F4AA
:1001A0003091C7012191DC01AB55BE4FA30FB11DAA
:1001B0002C930196F3CF8091C701680F6093C7011C
:1001C00080E0089581E0089582E0089508950895FB
:1001D0000895E091A2018091A101E81730F4F0E0C8
:1001E000EF57FE4F808190E008958FEF9FEF0895C5
:1001F0009091A2018091A101981750F4E92FF0E0AD
:10020000EF57FE4F208130E09F5F9093A20102C024
:100210002FEF3FEFC90108958091A10190E0209157
:10022000A201821B91090895CF92DF92EF92FF9273
:100230000F931F93CF93DF937C01CB018A01209111
:100240008001222389F0EB016B01C40ED51ECC1571
:10025000DD0569F06991D701ED91FC910190F08184
:10026000E02DC7010995F3CF642F0E94BE00C8019D
:10027000DF91CF911F910F91FF90EF90DF90CF9082
:100280000895CF93DF931F92CDB7DEB76983209196
:1002900080012223D1F02091A301203240F021E0FF
:1002A00030E0FC013383228380E090E015C0809130
:1002B000A401E82FF0E0E05AFE4F998190838F5F10
:1002C0008093A4018093A30105C061E0CE01019653
:1002D0000E94BE0081E090E00F90DF91CF910895E1
:1002E000833081F028F4813099F08230A1F00895B4
:1002F0008730A9F08830B9F08430D1F48091800043
:100300008F7D03C0809180008F7780938000089557
:1003100084B58F7702C084B58F7D84BD08958091A8
:10032000B0008F7703C08091B0008F7D8093B000C4
:100330000895CF93DF93282F30E0F901EE58FF4F57
:100340008491F901E255FF4FD491F901E656FF4F30
:10035000C491CC2389F081110E947001EC2FF0E050
:10036000EE0FFF1FEA57FF4FA591B4918FB7F89496
:10037000EC91ED2BEC938FBFDF91CF910895CF934C
:10038000DF93282F30E0F901EE58FF4F8491F901F7
:10039000E255FF4FD491F901E656FF4FC491CC23AB
:1003A00091F081110E947001EC2FF0E0EE0FFF1F21
:1003B000E859FF4FA591B491EC91ED2381E090E0D5
:1003C00021F480E002C080E090E0DF91CF910895B9
:1003D0003FB7F89480915C0190915D01A0915E011E
:1003E000B0915F0126B5A89B05C02F3F19F001967B
:1003F000A11DB11D3FBFBA2FA92F982F8827820FAB
:10040000911DA11DB11DBC01CD0142E0660F771FFA
:10041000881F991F4A95D1F708958F929F92AF92A6
:10042000BF92CF92DF92EF92FF926B017C010E940C
:10043000E8014B015C01C114D104E104F104F1F0C5
:100440000E94E801DC01CB0188199909AA09BB09BE
:10045000883E9340A105B10570F321E0C21AD1088E
:10046000E108F10888EE880E83E0981EA11CB11CFB
:10047000C114D104E104F10419F7DDCFFF90EF902E
:10048000DF90CF90BF90AF909F908F900895CF92C4
:10049000DF92EF92FF920F931F93CF93DF936C0144
:1004A0007A018B01C0E0D0E0CE15DF0581F0D801E4
:1004B0006D918D01D601ED91FC910190F081E02DBF
:1004C000C6010995892B11F02196EECF7E01C70157
:1004D000DF91CF911F910F91FF90EF90DF90CF9020
:1004E0000895FC01538D448D252F30E0842F90E03A
:1004F000821B930B541710F0CF960895019708951F
:10050000FC01918D828D981761F0828DDF01A80F1B
:10051000B11D5D968C91928D9F5F9F73928F90E03D
:1005200008958FEF9FEF0895FC01918D828D9817AC
:1005300031F0828DE80FF11D858D90E008958FEFE9
:100540009FEF0895FC01918D228D892F90E0805CB2
:100550009F4F821B91098F73992708958FE192E035
:100560000E94A20221E0892B09F420E0822F089545
:10057000FC01848DDF01A80FB11DA35ABF4F2C9140
:10058000848D90E001968F739927848FA689B7890F
:100590002C93A089B1898C91837080648C93938D06
:1005A000848D981306C00288F389E02D80818F7DA9
:1005B00080830895EF92FF920F931F93CF93DF9361
:1005C000EC0181E0888F9B8D8C8D981305C0E889A4
:1005D000F989808185FD26C0F62E0B8D10E00F5F16
:1005E0001F4F0F731127E02E8C8DE8120CC00FB631
:1005F00007FCFACFE889F989808185FFF5CFCE0124
:100600000E94B802F1CF8B8DFE01E80FF11DE35A75
:10061000FF4FF0829FB7F8940B8FEA89FB898081A6
:1006200080620AC09FB7F894EE89FF896083E889E9
:10063000F98980818370806480839FBF81E090E02E
:10064000DF91CF911F910F91FF90EF900895CF937D
:10065000DF93EC01888D8823C9F0EA89FB898081CA
:1006600085FD05C0A889B9898C9186FD0FC00FB69C
:1006700007FCF5CF808185FFF2CFA889B9898C91DD
:1006800085FFEDCFCE010E94B802E7CFDF91CF9179
:10069000089580E090E0892B29F00E94AE0281113C
:1006A0000C9400000895CF93FC01C48121E02093B5
:1006B0008001C0934E011092A4011092A301838582
:1006C000682B83E192E00E9441019091A301913255
:1006D00008F045C08091ED018111FCCF82E080934C
:1006E000ED0181E08093EF018FEF8093EC01109298
:1006F000110290931002A0E6B1E0E0EFF1E080E09B
:10070000981721F02D9121938F5FFACF109212024A
:1007100080911202CC0FC82BC09312028091EE017F
:10072000813061F41092EE01809112028093BB003F
:100730008091BC0083FDF8CF85EC01C085EE8093ED
:10074000BC008091ED018230E1F38091EC018F3F9C
:1007500031F08091EC01803211F08091EC01109227
:10076000A4011092A30110928001CF9108950F93DC
:100770001F93CF938C01C62F0E9453036C2F64608C
:10078000C8010E9453036C2F6B7FC8010E94530362
:1007900083EC90E00197F1F7CF911F910F910895AD
:1007A0000F931F93CF93DF938C01C62FD42F607FBD
:1007B000642B0E94B70380E1C89FB00111246D2B08
:1007C000C801DF91CF911F910F910C94B703CF9384
:1007D000DF93823028F09091C10298609093C1021B
:1007E0008093C40262E370E080E090E00E940D021A
:1007F0006091C7028CEB92E00E94530368EE73E0B5
:1008000080E090E00E940D0260E38CEB92E00E9499
:10081000B703CBE4D6E4CE010197F1F760E38CEBAC
:1008200092E00E94B7032197F1F760E38CEB92E02E
:100830000E94B70383E592E00197F1F760E28CEB49
:1008400092E00E94B7036091C102606240E08CEBCD
:1008500092E00E94D00384E08093C20240E06CE00A
:100860008CEB92E00E94D00340E061E08CEB92E0E0
:100870000E94D003CBE3DFE1CE010197F1F782E0E4
:100880008093C30240E066E08CEB92E00E94D003CC
:1008900040E062E08CEB92E00E94D0032197F1F7F8
:1008A000DF91CF910895CF93DF93CDB7DEB728972F
:1008B0000FB6F894DEBF0FBECDBF88E0E0E0F1E0F8
:1008C000DE01119601900D928A95E1F78091C402A4
:1008D000811102C08FEF01C081E0FE013196E80F67
:1008E000F11DE80FF11D6081606840E08CEB92E043
:1008F00028960FB6F894DEBF0FBECDBFDF91CF9123
:100900000C94D00341E00E94D00381E090E0089570
:10091000089580E090E008950E94AF086115710588
:1009200079F0FB0101900020E9F73197AF01461BF8
:10093000570BDC01ED91FC910280F381E02D0994CD
:1009400080E090E008958F929F92AF92BF92EF92D5
:10095000FF920F931F93CF93DF93CDB7DEB7A1978D
:100960000FB6F894DEBF0FBECDBF7C01FA01CB01FC
:1009700019A2223008F42AE08E010F5D1F4F822E4B
:10098000912CA12CB12CBF01A50194010E948708D4
:10099000F901CA01015011096A3014F4605D01C007
:1009A000695CD8016C93232B242B252B61F7B801AC
:1009B000C7010E948E04A1960FB6F894DEBF0FBE49
:1009C000CDBFDF91CF911F910F91FF90EF90BF901E
:1009D000AF909F908F900895CF92DF92EF92FF9209
:1009E0000F931F93CF93DF93EC016A017B01E881A2
:1009F000F9810190F081E02D6DE209958C01442789
:100A00005527BA014C195D096E097F092AE0CE010C
:100A10000E94A304800F911FDF91CF911F910F912E
:100A2000FF90EF90DF90CF900895AB01770F660BAA
:100A3000770B77FD0C94EC042AE00C94A3041F922E
:100A40000F920FB60F9211242F933F934F935F9302
:100A50006F937F938F939F93AF93BF93EF93FF9386
:100A60008091B900887F803609F49CC068F588328F
:100A700009F45BC090F4803109F454C038F4882341
:100A800009F4F6C0883009F44DC0F6C0883109F485
:100A90004CC0803209F45DC0EFC0803409F468C0F6
:100AA00048F4803309F455C0883309F0E5C08093D9
:100AB000EC01D8C0803509F44FC0883509F45DC019
:100AC000883409F0D9C0D6C0883909F4C7C0A8F461
:100AD000883709F467C038F4883609F463C0803772
:100AE00009F460C0C9C0883809F4B8C0803909F475
:100AF0005FC0803809F0C0C05BC0803B09F486C08D
:100B000038F4803A09F466C0883A09F47FC0B4C06A
:100B1000803C09F4A7C0883C09F4A4C0883B09F4D0
:100B20008AC0AAC08091120210C0909111028091D7
:100B30001002981770F5E091110281E08E0F8093FA
:100B40001102F0E0E051FE4F80818093BB0085EC04
:100B500086C08093EC018EC0E091110281E08E0F7F
:100B6000809311028091BB00F0E0E051FE4F808342
:100B700090911102809110026EC0E091110281E00B
:100B80008E0F809311028091BB00F0E0E051FE4F88
:100B900080838091EF0181116DC081E08093EE012F
:100BA00084EA61C083E08093ED011092EB01CFCF26
:100BB0008091EB01803208F051C0E091EB0181E0BF
:100BC0008E0F8093EB018091BB00F0E0E553FE4F68
:100BD0008083BDCF85EC8093BC001092ED018091A5
:100BE000EB01803230F4E091EB01F0E0E553FE4F91
:100BF00010826091EB0170E0E091C901F091CA01AF
:100C00008BEC91E009951092EB0136C084E0809363
:100C1000ED011092C8011092C701E091C501F09159
:100C2000C60109958091C701811105C081E08093BB
:100C3000C7011092A501E091C80181E08E0F809359
:100C4000C801F0E0EB55FE4F80818093BB0090918E
:100C5000C8018091C701981708F479CF85E880937F
:100C6000BC000AC085EC8093BC001092ED0104C06A
:100C70001092EC010E94B400FF91EF91BF91AF91EF
:100C80009F918F917F916F915F914F913F912F91A4
:100C90000F900FBE0F901F9018951F920F920FB6D6
:100CA0000F9211242F933F938F939F93AF93BF93F2
:100CB0008091580190915901A0915A01B0915B0126
:100CC0003091570123E0230F2D3720F40196A11D09
:100CD000B11D05C026E8230F0296A11DB11D20936A
:100CE00057018093580190935901A0935A01B093F2
:100CF0005B0180915C0190915D01A0915E01B091DA
:100D00005F010196A11DB11D80935C0190935D016F
:100D1000A0935E01B0935F01BF91AF919F918F91BE
:100D20003F912F910F900FBE0F901F9018951F921B
:100D30000F920FB60F9211242F933F934F935F930F
:100D40006F937F938F939F93AF93BF93EF93FF9393
:100D50008FE192E00E94B802FF91EF91BF91AF91B5
:100D60009F918F917F916F915F914F913F912F91C3
:100D70000F900FBE0F901F9018951F920F920FB6F5
:100D80000F9211242F938F939F93EF93FF93E091F2
:100D90002F02F09130028081E0913502F09136020D
:100DA00082FD12C09081809138028F5F8F732091F5
:100DB0003902821751F0E0913802F0E0E15EFD4F18
:100DC000958F8093380201C08081FF91EF919F91B0
:100DD0008F912F910F900FBE0F901F901895E3E108
:100DE000F2E01382128288EE93E0A0E0B0E0848308
:100DF0009583A683B7832CE031E031832083EFE134
:100E0000F2E01382128284839583A683B7838EE1F6
:100E100091E09183808385EC90E09587848784ECD2
:100E200090E09787868780EC90E0918B808B81ECB7
:100E300090E0938B828B82EC90E0958B848B86EC98
:100E400090E0978B868B118E128E138E148EECEBA6
:100E5000F2E01382128280E391E09183808387E243
:100E6000848380E1818782E0828713860895789465
:100E700084B5826084BD84B5816084BD85B582609F
:100E800085BD85B5816085BD80916E008160809350
:100E90006E001092810080918100826080938100B9
:100EA00080918100816080938100809180008160C9
:100EB000809380008091B10084608093B100809124
:100EC000B00081608093B00080917A00846080934C
:100ED0007A0080917A00826080937A0080917A0013
:100EE000816080937A0080917A00806880937A0094
:100EF0001092C10082E00E94E7031092A2011092BA
:100F0000A1011092A4011092A3011092ED0181E0C1
:100F10008093EF011092EE0182E10E94990183E13A
:100F20000E9499018091B9008E7F8093B9008091D1
:100F3000B9008D7F8093B90088E48093B80085E480
:100F40008093BC0086EE90E09093C6018093C5012B
:100F500087EE90E09093CA018093C9011092C1027C
:100F60008091C6020E94E70388E08093C70260E098
:100F70008CEB92E00E94530368E371E08CEB92E00B
:100F80000E948E0482E00E948C008CE00E948C0003
:100F9000E0912F02F091300282E08083E0912B02F9
:100FA000F0912C021082E0912D02F0912E028FEC34
:100FB000808310923702E0913302F091340286E090
:100FC0008083E0913102F0913202808180618083E0
:100FD000E0913102F0913202808188608083E0915B
:100FE0003102F0913202808180688083E091310289
:100FF000F091320280818F7D80838CE00E94BF015E
:101000009093560180935501AC01990F660B770BB5
:1010100077FF05C08FE192E00E94EC0405C02AE052
:101020008FE192E00E94A30468E471E08FE192E016
:101030000E948E048DE00E94BF01EC019093540148
:10104000809353010E945304219741F580915101EF
:1010500090915201892B11F5809155019091560183
:10106000892BE1F4C0914F01D09150012196D0938A
:101070005001C0934F010E945304BE018CEB92E0DB
:101080000E9415056BE471E08CEB92E00E948E04E7
:1010900068EC70E080E090E00E940D0280915301C6
:1010A00090915401019741F5809151019091520125
:1010B000892B11F580915501909156010197E1F42A
:1010C000C0914F01D09150012197D0935001C0930E
:1010D0004F010E945304BE018CEB92E00E94150563
:1010E0006BE471E08CEB92E00E948E0468EC70E09F
:1010F00080E090E00E940D02809153019091540194
:1011000090935201809351010E94490376CFA1E24E
:101110001A2EAA1BBB1BFD010DC0AA1FBB1FEE1F71
:10112000FF1FA217B307E407F50720F0A21BB30BBC
:10113000E40BF50B661F771F881F991F1A9469F738
:1011400060957095809590959B01AC01BD01CF0194
:101150000895EE0FFF1F0590F491E02D099481E0B2
:0C11600090E0F8940C94B408F894FFCFD1
:10116C000000400014005400000000004101140174
:10117C008904E8000C01F800E90000000000DA0224
:10118C00470271022703A2028002940200000000B1
:10119C008204470289048804427574746F6E20704F
:0E11AC007265737365733A000D0A002000002F
:00000001FF
